{"abi":[{"type":"constructor","inputs":[{"name":"initialOwner","type":"address","internalType":"address"}],"stateMutability":"nonpayable"},{"type":"function","name":"addAuthorizedScorer","inputs":[{"name":"scorer","type":"address","internalType":"address"}],"outputs":[],"stateMutability":"nonpayable"},{"type":"function","name":"approve","inputs":[{"name":"to","type":"address","internalType":"address"},{"name":"tokenId","type":"uint256","internalType":"uint256"}],"outputs":[],"stateMutability":"nonpayable"},{"type":"function","name":"authorizedScorers","inputs":[{"name":"","type":"address","internalType":"address"}],"outputs":[{"name":"","type":"bool","internalType":"bool"}],"stateMutability":"view"},{"type":"function","name":"badges","inputs":[{"name":"","type":"uint256","internalType":"uint256"}],"outputs":[{"name":"name","type":"string","internalType":"string"},{"name":"description","type":"string","internalType":"string"},{"name":"imageURI","type":"string","internalType":"string"},{"name":"minScore","type":"uint256","internalType":"uint256"},{"name":"categoryMask","type":"uint256","internalType":"uint256"}],"stateMutability":"view"},{"type":"function","name":"balanceOf","inputs":[{"name":"owner","type":"address","internalType":"address"}],"outputs":[{"name":"","type":"uint256","internalType":"uint256"}],"stateMutability":"view"},{"type":"function","name":"certificateImages","inputs":[{"name":"","type":"uint256","internalType":"uint256"}],"outputs":[{"name":"","type":"string","internalType":"string"}],"stateMutability":"view"},{"type":"function","name":"createBadge","inputs":[{"name":"name","type":"string","internalType":"string"},{"name":"description","type":"string","internalType":"string"},{"name":"imageURI","type":"string","internalType":"string"},{"name":"minScore","type":"uint256","internalType":"uint256"},{"name":"categoryMask","type":"uint256","internalType":"uint256"}],"outputs":[{"name":"","type":"uint256","internalType":"uint256"}],"stateMutability":"nonpayable"},{"type":"function","name":"getApproved","inputs":[{"name":"tokenId","type":"uint256","internalType":"uint256"}],"outputs":[{"name":"","type":"address","internalType":"address"}],"stateMutability":"view"},{"type":"function","name":"getTierImage","inputs":[{"name":"tier","type":"string","internalType":"string"}],"outputs":[{"name":"","type":"string","internalType":"string"}],"stateMutability":"view"},{"type":"function","name":"getVerificationCount","inputs":[{"name":"","type":"address","internalType":"address"}],"outputs":[{"name":"","type":"uint256","internalType":"uint256"}],"stateMutability":"pure"},{"type":"function","name":"getWalletBadges","inputs":[{"name":"wallet","type":"address","internalType":"address"}],"outputs":[{"name":"","type":"uint256[]","internalType":"uint256[]"}],"stateMutability":"view"},{"type":"function","name":"getWalletCertificate","inputs":[{"name":"wallet","type":"address","internalType":"address"}],"outputs":[{"name":"","type":"uint256","internalType":"uint256"}],"stateMutability":"view"},{"type":"function","name":"getWalletScore","inputs":[{"name":"wallet","type":"address","internalType":"address"}],"outputs":[{"name":"","type":"tuple","internalType":"struct OnChainScore.ScoreData","components":[{"name":"totalScore","type":"uint256","internalType":"uint256"},{"name":"portfolioScore","type":"uint256","internalType":"uint256"},{"name":"activityScore","type":"uint256","internalType":"uint256"},{"name":"defiScore","type":"uint256","internalType":"uint256"},{"name":"diversificationScore","type":"uint256","internalType":"uint256"},{"name":"securityScore","type":"uint256","internalType":"uint256"},{"name":"identityScore","type":"uint256","internalType":"uint256"},{"name":"profitabilityScore","type":"uint256","internalType":"uint256"},{"name":"timestamp","type":"uint256","internalType":"uint256"},{"name":"tier","type":"string","internalType":"string"},{"name":"isValid","type":"bool","internalType":"bool"}]}],"stateMutability":"view"},{"type":"function","name":"hasCertificate","inputs":[{"name":"wallet","type":"address","internalType":"address"}],"outputs":[{"name":"","type":"bool","internalType":"bool"}],"stateMutability":"view"},{"type":"function","name":"hasCertificateMapping","inputs":[{"name":"","type":"address","internalType":"address"}],"outputs":[{"name":"","type":"bool","internalType":"bool"}],"stateMutability":"view"},{"type":"function","name":"isApprovedForAll","inputs":[{"name":"owner","type":"address","internalType":"address"},{"name":"operator","type":"address","internalType":"address"}],"outputs":[{"name":"","type":"bool","internalType":"bool"}],"stateMutability":"view"},{"type":"function","name":"name","inputs":[],"outputs":[{"name":"","type":"string","internalType":"string"}],"stateMutability":"view"},{"type":"function","name":"owner","inputs":[],"outputs":[{"name":"","type":"address","internalType":"address"}],"stateMutability":"view"},{"type":"function","name":"ownerOf","inputs":[{"name":"tokenId","type":"uint256","internalType":"uint256"}],"outputs":[{"name":"","type":"address","internalType":"address"}],"stateMutability":"view"},{"type":"function","name":"removeAuthorizedScorer","inputs":[{"name":"scorer","type":"address","internalType":"address"}],"outputs":[],"stateMutability":"nonpayable"},{"type":"function","name":"renounceOwnership","inputs":[],"outputs":[],"stateMutability":"nonpayable"},{"type":"function","name":"safeTransferFrom","inputs":[{"name":"from","type":"address","internalType":"address"},{"name":"to","type":"address","internalType":"address"},{"name":"tokenId","type":"uint256","internalType":"uint256"}],"outputs":[],"stateMutability":"nonpayable"},{"type":"function","name":"safeTransferFrom","inputs":[{"name":"from","type":"address","internalType":"address"},{"name":"to","type":"address","internalType":"address"},{"name":"tokenId","type":"uint256","internalType":"uint256"},{"name":"data","type":"bytes","internalType":"bytes"}],"outputs":[],"stateMutability":"nonpayable"},{"type":"function","name":"scoreVerifications","inputs":[{"name":"","type":"address","internalType":"address"},{"name":"","type":"address","internalType":"address"}],"outputs":[{"name":"","type":"bool","internalType":"bool"}],"stateMutability":"view"},{"type":"function","name":"setApprovalForAll","inputs":[{"name":"operator","type":"address","internalType":"address"},{"name":"approved","type":"bool","internalType":"bool"}],"outputs":[],"stateMutability":"nonpayable"},{"type":"function","name":"setBaseCertificateImage","inputs":[{"name":"_imageHash","type":"string","internalType":"string"}],"outputs":[],"stateMutability":"nonpayable"},{"type":"function","name":"setTierImage","inputs":[{"name":"tier","type":"string","internalType":"string"},{"name":"imageHash","type":"string","internalType":"string"}],"outputs":[],"stateMutability":"nonpayable"},{"type":"function","name":"setTierImages","inputs":[{"name":"tierList","type":"string[]","internalType":"string[]"},{"name":"imageHashes","type":"string[]","internalType":"string[]"}],"outputs":[],"stateMutability":"nonpayable"},{"type":"function","name":"supportsInterface","inputs":[{"name":"interfaceId","type":"bytes4","internalType":"bytes4"}],"outputs":[{"name":"","type":"bool","internalType":"bool"}],"stateMutability":"view"},{"type":"function","name":"symbol","inputs":[],"outputs":[{"name":"","type":"string","internalType":"string"}],"stateMutability":"view"},{"type":"function","name":"tokenURI","inputs":[{"name":"tokenId","type":"uint256","internalType":"uint256"}],"outputs":[{"name":"","type":"string","internalType":"string"}],"stateMutability":"view"},{"type":"function","name":"transferFrom","inputs":[{"name":"from","type":"address","internalType":"address"},{"name":"to","type":"address","internalType":"address"},{"name":"tokenId","type":"uint256","internalType":"uint256"}],"outputs":[],"stateMutability":"nonpayable"},{"type":"function","name":"transferOwnership","inputs":[{"name":"newOwner","type":"address","internalType":"address"}],"outputs":[],"stateMutability":"nonpayable"},{"type":"function","name":"updateScore","inputs":[{"name":"wallet","type":"address","internalType":"address"},{"name":"totalScore","type":"uint256","internalType":"uint256"},{"name":"componentScores","type":"uint256[7]","internalType":"uint256[7]"},{"name":"tier","type":"string","internalType":"string"}],"outputs":[],"stateMutability":"nonpayable"},{"type":"function","name":"verifyScore","inputs":[{"name":"wallet","type":"address","internalType":"address"}],"outputs":[],"stateMutability":"nonpayable"},{"type":"function","name":"walletBadges","inputs":[{"name":"","type":"address","internalType":"address"},{"name":"","type":"uint256","internalType":"uint256"}],"outputs":[{"name":"","type":"uint256","internalType":"uint256"}],"stateMutability":"view"},{"type":"function","name":"walletCertificates","inputs":[{"name":"","type":"address","internalType":"address"}],"outputs":[{"name":"","type":"uint256","internalType":"uint256"}],"stateMutability":"view"},{"type":"function","name":"walletScores","inputs":[{"name":"","type":"address","internalType":"address"}],"outputs":[{"name":"totalScore","type":"uint256","internalType":"uint256"},{"name":"portfolioScore","type":"uint256","internalType":"uint256"},{"name":"activityScore","type":"uint256","internalType":"uint256"},{"name":"defiScore","type":"uint256","internalType":"uint256"},{"name":"diversificationScore","type":"uint256","internalType":"uint256"},{"name":"securityScore","type":"uint256","internalType":"uint256"},{"name":"identityScore","type":"uint256","internalType":"uint256"},{"name":"profitabilityScore","type":"uint256","internalType":"uint256"},{"name":"timestamp","type":"uint256","internalType":"uint256"},{"name":"tier","type":"string","internalType":"string"},{"name":"isValid","type":"bool","internalType":"bool"}],"stateMutability":"view"},{"type":"event","name":"Approval","inputs":[{"name":"owner","type":"address","indexed":true,"internalType":"address"},{"name":"approved","type":"address","indexed":true,"internalType":"address"},{"name":"tokenId","type":"uint256","indexed":true,"internalType":"uint256"}],"anonymous":false},{"type":"event","name":"ApprovalForAll","inputs":[{"name":"owner","type":"address","indexed":true,"internalType":"address"},{"name":"operator","type":"address","indexed":true,"internalType":"address"},{"name":"approved","type":"bool","indexed":false,"internalType":"bool"}],"anonymous":false},{"type":"event","name":"BadgeEarned","inputs":[{"name":"wallet","type":"address","indexed":true,"internalType":"address"},{"name":"badgeId","type":"uint256","indexed":false,"internalType":"uint256"},{"name":"badgeName","type":"string","indexed":false,"internalType":"string"}],"anonymous":false},{"type":"event","name":"OwnershipTransferred","inputs":[{"name":"previousOwner","type":"address","indexed":true,"internalType":"address"},{"name":"newOwner","type":"address","indexed":true,"internalType":"address"}],"anonymous":false},{"type":"event","name":"ScoreUpdated","inputs":[{"name":"wallet","type":"address","indexed":true,"internalType":"address"},{"name":"newScore","type":"uint256","indexed":false,"internalType":"uint256"},{"name":"tier","type":"string","indexed":false,"internalType":"string"}],"anonymous":false},{"type":"event","name":"ScoreVerified","inputs":[{"name":"wallet","type":"address","indexed":true,"internalType":"address"},{"name":"verifier","type":"address","indexed":true,"internalType":"address"}],"anonymous":false},{"type":"event","name":"Transfer","inputs":[{"name":"from","type":"address","indexed":true,"internalType":"address"},{"name":"to","type":"address","indexed":true,"internalType":"address"},{"name":"tokenId","type":"uint256","indexed":true,"internalType":"uint256"}],"anonymous":false},{"type":"error","name":"ERC721IncorrectOwner","inputs":[{"name":"sender","type":"address","internalType":"address"},{"name":"tokenId","type":"uint256","internalType":"uint256"},{"name":"owner","type":"address","internalType":"address"}]},{"type":"error","name":"ERC721InsufficientApproval","inputs":[{"name":"operator","type":"address","internalType":"address"},{"name":"tokenId","type":"uint256","internalType":"uint256"}]},{"type":"error","name":"ERC721InvalidApprover","inputs":[{"name":"approver","type":"address","internalType":"address"}]},{"type":"error","name":"ERC721InvalidOperator","inputs":[{"name":"operator","type":"address","internalType":"address"}]},{"type":"error","name":"ERC721InvalidOwner","inputs":[{"name":"owner","type":"address","internalType":"address"}]},{"type":"error","name":"ERC721InvalidReceiver","inputs":[{"name":"receiver","type":"address","internalType":"address"}]},{"type":"error","name":"ERC721InvalidSender","inputs":[{"name":"sender","type":"address","internalType":"address"}]},{"type":"error","name":"ERC721NonexistentToken","inputs":[{"name":"tokenId","type":"uint256","internalType":"uint256"}]},{"type":"error","name":"OwnableInvalidOwner","inputs":[{"name":"owner","type":"address","internalType":"address"}]},{"type":"error","name":"OwnableUnauthorizedAccount","inputs":[{"name":"account","type":"address","internalType":"address"}]},{"type":"error","name":"ReentrancyGuardReentrantCall","inputs":[]}],"bytecode":{"object":"0x6080346200060b576200395f90813803601f19601f91818382011684019460018060401b0391858710838811176200060f57808692604098895283396020958691810103126200060b57516001600160a01b0380821693909290918490036200060b576200006c62000623565b93601485527f4f6e436861696e204372656469742053636f726500000000000000000000000087860152620000a062000623565b93600495868652634f43435360e01b89870152805190848211620005f857620000ca5f5462000643565b8a8a8211620005c7575b5050899089831160011462000561576200010692915f9183620003ba575b50508160011b915f199060031b1c19161790565b5f555b84518381116200054e5760019562000122875462000643565b8a8a821162000512575b50508990898311600114620004af576200015d92915f9183620003ba5750508160011b915f199060031b1c19161790565b85555b81156200049957600680546001600160a01b031981168417909155167f8be0079c531659141344cd1fd0a4f28419497f9722a3daafe3b4186f6b6457e05f80a3826007555f600f555f601055865161014081018181108382111762000486578852620001cb62000623565b848152602360f91b888201528152620001e362000623565b848152601160fa1b8882015287820152620001fd62000623565b848152604360f81b88820152888201526200021762000623565b6002815261432b60f01b8882015260608201526200023462000623565b848152602160f91b8882015260808201526200024f62000623565b6002815261422b60f01b8882015260a08201526200026c62000623565b848152604160f81b8882015260c08201526200028762000623565b6002815261412b60f01b8882015260e0820152620002a462000623565b848152605360f81b88820152610100820152620002c062000623565b6002815261532b60f01b888201526101208201525f916015915b600a84106200035257898989620002f360135462000643565b9080821162000330575b7f516d596f757244656661756c74496d616765486173680000000000000000002c60135583516132c89081620006978239f35b620003499260135f525f20910160051c8101906200067e565b818080620002fd565b8051908151838111620004735787918b916200036f875462000643565b8c811162000436575b5082948c8211600114620003c65790808596620003aa935f92620003ba5750508160011b915f199060031b1c19161790565b86555b01930193019291620002da565b015190505f80620000f2565b9489821690885f52845f20915f5b818110620004135750908697848895949310620003fa575b505050811b018655620003ad565b01515f1960f88460031b161c191690555f8080620003ec565b9497939686929691938786015181550195019301928e94918c96939794620003d4565b6200046290885f528d855f2090600590808601821c83019388871062000469575b01901c01906200067e565b5f62000378565b9350829362000457565b604189634e487b7160e01b5f525260245ffd5b604186634e487b7160e01b5f525260245ffd5b8851631e4fbdf760e01b81525f81880152602490fd5b82918789941691845f528c5f20928d5f905b828210620004fa5750508411620004e1575b505050811b01855562000160565b01515f1960f88460031b161c191690555f8080620004d3565b8385015186558c979095019493840193018e620004c1565b6200053c91895f528b825f209181870160051c830193871062000544575b0160051c01906200067e565b5f8a6200012c565b9250819262000530565b604187634e487b7160e01b5f525260245ffd5b90868316915f80528b5f20925f5b8d828210620005b057505090846001959493921062000597575b505050811b015f5562000109565b01515f1960f88460031b161c191690555f808062000589565b60018596829396860151815501950193016200056f565b620005f0915f80528b825f209181870160051c830193871062000544570160051c01906200067e565b5f8a620000d4565b604188634e487b7160e01b5f525260245ffd5b5f80fd5b634e487b7160e01b5f52604160045260245ffd5b60408051919082016001600160401b038111838210176200060f57604052565b90600182811c9216801562000673575b60208310146200065f57565b634e487b7160e01b5f52602260045260245ffd5b91607f169162000653565b8181106200068a575050565b5f81556001016200067e56fe6080806040526004361015610012575f80fd5b5f3560e01c90816301ffc9a71461257c5750806306fdde03146124d5578063081812fc14612499578063095ea7b3146123b85780630c02199b1461237e5780631415f4c01461208657806317ec4fc714610dea5780631aad32b814611ef15780631ada65be14611ebd5780631e891ad714611e8057806323b872dd14611e695780632851355814611dee5780633110172014611cc057806331796d0f14611b6d578063349b39ca14611b2957806342842e0e14611afc5780634a6f0ecf14611a4e5780636352211e14611a1e5780636c8c93011461194a5780636d144c2f1461182f57806370a08231146117d9578063715018a61461177e5780637f9482a014610e8b5780638da5cb5b14610e63578063923edd0414610e2257806392f5f67514610dea57806395d89b4114610d2057806398e36d8b14610c66578063a22cb46514610bbc578063b88d4fde14610b51578063bea76c34146109a5578063c87b56dd146103aa578063c9bb1ff514610353578063daff3b9c14610301578063e985e9c5146102af578063f017c5a61461028b578063f2fde38b146101ff5763f5ebef48146101be575f80fd5b346101fb5760203660031901126101fb576001600160a01b036101df61262d565b165f52600b602052602060ff60405f2054166040519015158152f35b5f80fd5b346101fb5760203660031901126101fb5761021861262d565b610220612b49565b6001600160a01b0390811690811561027357600654826bffffffffffffffffffffffff60a01b821617600655167f8be0079c531659141344cd1fd0a4f28419497f9722a3daafe3b4186f6b6457e05f80a3005b604051631e4fbdf760e01b81525f6004820152602490fd5b346101fb5760203660031901126101fb576102a461262d565b5060206040515f8152f35b346101fb5760403660031901126101fb576102c861262d565b6102d0612643565b9060018060a01b038091165f52600560205260405f2091165f52602052602060ff60405f2054166040519015158152f35b346101fb5760403660031901126101fb5761031a61262d565b610322612643565b9060018060a01b038091165f52600c60205260405f2091165f52602052602060ff60405f2054166040519015158152f35b346101fb5760403660031901126101fb5761036c61262d565b6001600160a01b03165f908152600960205260409020805460243591908210156101fb5760209161039c916128a0565b90546040519160031b1c8152f35b346101fb576020806003193601126101fb576004355f8181526002835260409020546001600160a01b0390811615610969576103e582612b0f565b165f526008825260405f20604051906103fd82612659565b80548252600181015492848301938452600282015460408401526003820154916060840192835260048101546080850152600581015460a0850152600681015460c0850152600781015460e0850152600881015461010085015260ff600a60405192610477846104708160098501612758565b0385612690565b6101208701938452015416151561014085015261049382612de6565b9360405193878501957f226e616d65223a224f6e436861696e204372656469742053636f7265204365728752697469666963617465202360b01b60408701526104e5815180928b604a8a0191016125e7565b850191610508604b87601160f91b9586604a82015203602b810189520187612690565b6040519260a08401986001600160401b03998581108b82111761094557604052606285528a8501967f226465736372697074696f6e223a224f6666696369616c204f6e436861696e2088527f4372656469742053636f72652043657274696669636174652073686f77696e6760408701527f20576562332072657075746174696f6e20616e6420616368696576656d656e74606087015261399160f11b60808701526105bd6105b78851612ad5565b54612720565b1561095957506105cd8651612ad5565b925b6040516105dd818096612758565b036105e89085612690565b60405180938d808301966f22696d616765223a22697066733a2f2f60801b8852805180926030860192019161061c926125e7565b8201906030820152036011810184526031016106389084612690565b5161064290612de6565b9551905161064f90612de6565b935161065a90612de6565b908b60405195818701986d2261747472696275746573223a5b60901b8a52602e88017f7b2274726169745f74797065223a22546f74616c2053636f7265222c2276616c9052633ab2911d60e11b604e890152805190818460528b019201916106c1926125e7565b870192611f4b60f21b93846052820152605481017f7b2274726169745f74797065223a2254696572222c2276616c7565223a220000905281519182856072840192019161070d926125e7565b019062089f4b60ea1b6072830152607582017f7b2274726169745f74797065223a22506f7274666f6c696f2053636f7265222c905267113b30b63ab2911d60c11b609583015280518093609d8401920191610767926125e7565b0190609d820152609f81017f7b2274726169745f74797065223a22446546692053636f7265222c2276616c7590526232911d60e91b60bf820152815191828d60c284019201916107b6926125e7565b019583607d60f81b978860c282015260c38101605d60f81b90520360a48101855260c4016107e49085612690565b6040519889988c8a01607b60f81b905251908160218b01610804926125e7565b8801600b60fa1b9586602183015251918260228301610822926125e7565b01908460228301525191826023830161083a926125e7565b0191602383015251918260248301610851926125e7565b019060248201520360058101825260250161086c9082612690565b60405190606082019282841090841117610945576108db92604052604082527f4142434445464748494a4b4c4d4e4f505152535455565758595a616263646566848301527f6768696a6b6c6d6e6f707172737475767778797a303132333435363738392b2f6040830152613153565b9061092d603d60405180947f646174613a6170706c69636174696f6e2f6a736f6e3b6261736536342c0000008583015261091d815180928786860191016125e7565b810103601d810185520183612690565b610941604051928284938452830190612608565b0390f35b634e487b7160e01b5f52604160045260245ffd5b5f52600e8b5260405f20926105cf565b60405162461bcd60e51b8152600481018490526014602482015273151bdad95b88191bd95cc81b9bdd08195e1a5cdd60621b6044820152606490fd5b346101fb5760403660031901126101fb576001600160401b036004358181116101fb576109d690369060040161281e565b90602480358281116101fb576109f090369060040161281e565b916109f9612b49565b8351835103610b13579291905f935b8351851015610b1157610a1b8584612afb565b5194610a30610a2a8287612afb565b51612ad5565b8651838111610afe57610a4d81610a478454612720565b846128eb565b6020601f8211600114610a9a579080610a82926001969798999a5f92610a8f575b50508160011b915f199060031b1c19161790565b90555b0193929190610a08565b015190508a80610a6e565b601f19821690835f52805f20915f5b818110610ae65750998360019798999a9b10610ace575b505050831b83019055610a85565b01515f1960f88460031b161c19169055888080610ac0565b9192602060018192868f015181550194019201610aa9565b84634e487b7160e01b5f5260416004525ffd5b005b60405162461bcd60e51b8152602060048201526016602482015275082e4e4c2f2e640d8cadccee8d040dad2e6dac2e8c6d60531b6044820152606490fd5b346101fb5760803660031901126101fb57610b6a61262d565b610b72612643565b90604435606435926001600160401b0384116101fb57366023850112156101fb57610baa610b119436906024816004013591016126cc565b92610bb683838361293a565b33612c6b565b346101fb5760403660031901126101fb57610bd561262d565b60243590811515908183036101fb576001600160a01b0316918215610c4d57610c1f90335f52600560205260405f20845f5260205260405f209060ff801983541691151516179055565b6040519081527f17307eab39ab6107e8899845ad3d59bd9653f200f220920489ca2b5937696c3160203392a3005b604051630b61174360e31b815260048101849052602490fd5b346101fb5760203660031901126101fb576004355f52600a602052610cf560405f2060405190610ca182610c9a8184612758565b0383612690565b604051610cbc81610cb58160018601612758565b0382612690565b610d11604051610cd381610cb58160028801612758565b610d03600460038601549501549360405197889760a0895260a0890190612608565b908782036020890152612608565b908582036040870152612608565b91606084015260808301520390f35b346101fb575f3660031901126101fb576040515f60018260015492610d4484612720565b92838352602094856001821691825f14610dca575050600114610d6f575b5061092d92500383612690565b84915060015f527fb10e2d527612073b26eecdfd717e6a320cf44b4afac2b0732d9fcbe2b7fa0cf6905f915b858310610db257505061092d935082010185610d62565b80548389018501528794508693909201918101610d9b565b60ff19168582015261092d95151560051b8501019250879150610d629050565b346101fb5760203660031901126101fb576001600160a01b03610e0b61262d565b165f52600d602052602060405f2054604051908152f35b346101fb5760203660031901126101fb57610e3b61262d565b610e43612b49565b6001600160a01b03165f908152600b60205260409020805460ff19169055005b346101fb575f3660031901126101fb576006546040516001600160a01b039091168152602090f35b346101fb576101403660031901126101fb57610ea561262d565b60249036606312156101fb5760405160e081018181106001600160401b0382111761143e57604052610124813682116101fb576044905b82821061176e575050356001600160401b0381116101fb57610f02903690600401612702565b335f52600b60205260ff60405f205416801561175a575b156117255760648435116116e157815160208301516040840151606085015160808601519060a08701519260c08801519460405196610f5788612659565b8b358852602088015260408701526060860152608085015260a084015260c083015260e08201524261010082015281610120820152600161014082015260018060a01b0384165f52600860205260405f2090805182556020810151600183015560408101516002830155606081015160038301556080810151600483015560a0810151600583015560c0810151600683015560e0810151600783015561010081015160088301556101208101518051906001600160401b0382116116ce5761102f826110266009870154612720565b600987016128eb565b602090601f8311600114611658579261106883600a946101409461108598975f9261164d5750508160011b915f199060031b1c19161790565b60098501555b0151151591019060ff801983541691151516179055565b7f2b535fbf4d2281f734a35408583a14d4e2b28653b00d761613e8758399dd6e6d6040518535815260406020820152806110cc60018060a01b038716946040830190612608565b0390a26012604082015110158061163d575b6115b3575b600960808201511015806115a3575b611504575b601690511015806114f4575b611461575b606482351480611451575b6113aa575b6001600160a01b0381165f908152600d60205260409020541561113757005b600f54611143816128c9565b600f5560018060a01b0382165f52600d6020528060405f2055805f52600e60205261117060405f20612b75565b60405161117c81612675565b5f81526001600160a01b03831615611393575f828152600260205260409020546001600160a01b031680151590839082611360575b6001600160a01b0386165f818152600360209081526040808320805460010190558583526002909152812080546001600160a01b031916831790559091907fddf252ad1be2c89b69c2b068fc378daa952ba7f163c4a11628f55a4df523b3ef9080a461134957823b61121f57005b60206112599160405180938192630a85bd0160e11b968784523360048501525f8a8501526044840152608060648401526084830190612608565b03815f6001600160a01b0388165af15f9181611304575b506112d45750503d156112cd573d611287816126b1565b906112956040519283612690565b81523d5f602083013e5b805190816112c8575050604051633250574960e11b81526001600160a01b039091166004820152fd5b602001fd5b606061129f565b6001600160e01b031916036112e557005b604051633250574960e11b81526001600160a01b039091166004820152fd5b9091506020813d602011611341575b8161132060209383612690565b810103126101fb57516001600160e01b0319811681036101fb579085611270565b3d9150611313565b6040516339e3563760e11b81525f60048201528490fd5b5f82815260046020526040902080546001600160a01b0319169055805f52600360205260405f205f1981540190556111b1565b604051633250574960e11b81525f60048201528490fd5b6001600160a01b0381165f9081526009602052604090208054600160401b81101561143e576113de916001820181556128a0565b81549060031b906003821b915f19901b19161790556040516003815260406020820152600d60408201526c506572666563742053636f726560981b60608201525f80516020613253833981519152608060018060a01b03841692a2611118565b83634e487b7160e01b5f5260416004525ffd5b5061145b816130cd565b15611113565b6001600160a01b0381165f9081526009602052604090208054600160401b81101561143e57611495916001820181556128a0565b81549060031b906002821b915f19901b19161790556040516002815260406020820152600c60408201526b43727970746f205768616c6560a01b60608201525f80516020613253833981519152608060018060a01b03841692a2611108565b506114fe81613047565b15611103565b6001600160a01b0382165f90815260096020526040902080549190600160401b831015610afe578261153d9160016016950181556128a0565b81549060031b906001821b915f19901b19161790556040516001815260406020820152601160408201527029b2b1bab934ba3c9021b430b6b834b7b760791b60608201525f80516020613253833981519152608060018060a01b03861692a290506110f7565b506115ad82612fb9565b156110f2565b6001600160a01b0382165f9081526009602052604090208054600160401b811015610afe576115e7916001820181556128a0565b8154905f199060031b1b191690556040515f815260406020820152600b60408201526a2232a3349026b0b9ba32b960a91b60608201525f80516020613253833981519152608060018060a01b03851692a26110e3565b5061164782612f28565b156110de565b015190508c80610a6e565b90600985015f5260205f20915f5b601f19851681106116b657508361014093611085979693600193600a97601f1981161061169e575b505050811b01600985015561106e565b01515f1960f88460031b161c191690558b808061168e565b91926020600181928685015181550194019201611666565b87634e487b7160e01b5f5260416004525ffd5b60405162461bcd60e51b8152602060048201526017818601527f53636f72652063616e6e6f7420657863656564203130300000000000000000006044820152606490fd5b60405162461bcd60e51b815260206004820152600e818601526d139bdd08185d5d1a1bdc9a5e995960921b6044820152606490fd5b506006546001600160a01b03163314610f19565b8135815260209182019101610edc565b346101fb575f3660031901126101fb57611796612b49565b600680546001600160a01b031981169091555f906001600160a01b03167f8be0079c531659141344cd1fd0a4f28419497f9722a3daafe3b4186f6b6457e08280a3005b346101fb5760203660031901126101fb576001600160a01b036117fa61262d565b168015611817575f526003602052602060405f2054604051908152f35b6040516322718ad960e21b81525f6004820152602490fd5b346101fb576020806003193601126101fb5761184961262d565b335f526008825260ff600a60405f200154161561190557335f5260088252603c60405f2054106118c2576001600160a01b03165f818152600c835260408082203380845294528120805460ff191660011790557f01c45feb829af6aa22b210aacf7f434d3ac4456701d7afb76a933fc93d4e13cb9080a3005b6064826040519062461bcd60e51b825280600483015260248201527f5665726966696572206d7573742068617665206d696e696d756d2073636f72656044820152fd5b60405162461bcd60e51b815260048101839052601e60248201527f5665726966696572206d75737420686176652076616c69642073636f726500006044820152606490fd5b346101fb5760203660031901126101fb576001600160a01b0361196b61262d565b165f52600860205260405f208054600182015490611a1160028401549360038101549260048201546005830154600684015460078501549160088601549360ff600a604051986119c98a6119c28160098501612758565b038b612690565b015416986040519b8c9b610160988d5260208d015260408c015260608b015260808a015260a089015260c088015260e087015261010086015280610120860152840190612608565b9015156101408301520390f35b346101fb5760203660031901126101fb576020611a3c600435612b0f565b6040516001600160a01b039091168152f35b346101fb576020806003193601126101fb576001600160a01b03611a7061262d565b165f526009815260405f20604051908183825491828152019081925f52845f20905f5b86828210611ae8578686611aa982880383612690565b60405192839281840190828552518091526040840192915f5b828110611ad157505050500390f35b835185528695509381019392810192600101611ac2565b835485529093019260019283019201611a93565b346101fb57610b11611b0d366127e9565b9060405192611b1b84612675565b5f8452610bb683838361293a565b346101fb5760203660031901126101fb57611b4261262d565b611b4a612b49565b6001600160a01b03165f908152600b60205260409020805460ff19166001179055005b346101fb576020806003193601126101fb576001600160401b036004358181116101fb57611b9f903690600401612702565b91611ba8612b49565b825191821161094557611bbc601354612720565b601f8111611c70575b50602090601f8311600114611c0557508190611bf5935f92611bfa5750508160011b915f199060031b1c19161790565b601355005b015190508380610a6e565b90601f1983169360135f525f80516020613273833981519152925f905b868210611c585750508360019510611c40575b505050811b01601355005b01515f1960f88460031b161c19169055828080611c35565b80600185968294968601518155019501930190611c22565b60135f525f80516020613273833981519152601f840160051c81019160208510611cb6575b601f0160051c01905b818110611cab5750611bc5565b5f8155600101611c9e565b9091508190611c95565b346101fb5760403660031901126101fb576001600160401b036004358181116101fb57611cf1903690600401612702565b6024358281116101fb57611d09903690600401612702565b91611d12612b49565b6040518281809451611d2a81602097888096016125e7565b8101601481520301902091835191821161094557611d5282611d4c8554612720565b856128eb565b80601f8311600114611d8f57508190611d8093945f92611d845750508160011b915f199060031b1c19161790565b9055005b015190508480610a6e565b90601f19831694845f52825f20925f905b878210611dd6575050836001959610611dbe575b505050811b019055005b01515f1960f88460031b161c19169055838080611db4565b80600185968294968601518155019501930190611da0565b346101fb5760203660031901126101fb576004356001600160401b0381116101fb57610cb5611e55611e3f6020611e2c610941953690600401612702565b81604051938285809451938492016125e7565b8101601481520301902060405192838092612758565b604051918291602083526020830190612608565b346101fb57610b11611e7a366127e9565b9161293a565b346101fb5760203660031901126101fb576001600160a01b03611ea161262d565b165f526012602052602060ff60405f2054166040519015158152f35b346101fb5760203660031901126101fb576004355f52600e602052610941610cb5611e5560405f2060405192838092612758565b346101fb5760203660031901126101fb57611f0a61262d565b5f610140604051611f1a81612659565b8281528260208201528260408201528260608201528260808201528260a08201528260c08201528260e0820152826101008201526060610120820152015260018060a01b03165f52600860205260405f2060ff600a60405192611f7c84612659565b8054845260018101546020850152600281015460408501526003810154606085015260048101546080850152600581015460a0850152600681015460c0850152600781015460e08501526008810154610100850152604051611fe581610cb58160098601612758565b610120850152015416151561014082015260405180916020825280516020830152602081015160408301526040810151606083015260608101516080830152608081015160a083015260a081015160c083015260c081015160e083015260e0810151610100830152610100810151610120830152610120810151610140612079610160928383870152610180860190612608565b9201511515908301520390f35b346101fb5760a03660031901126101fb576001600160401b036004358181116101fb576120b7903690600401612702565b906024358181116101fb576120d0903690600401612702565b906044358181116101fb576120e9903690600401612702565b926120f2612b49565b601054916120ff836128c9565b6010556040519160a0830183811083821117610945576040528252602094858301948552604083019081526060830190606435825260808401926084358452855f52600a885260405f20945180519082821161094557612169826121638954612720565b896128eb565b8990601f831160011461231b5761219692915f91836123105750508160011b915f199060031b1c19161790565b85555b6001968786019051805190838211610945576121b982611d4c8554612720565b8a90601f83116001146122ae576121e692915f918361164d5750508160011b915f199060031b1c19161790565b90555b60028501915180519182116109455761220682611d4c8554612720565b8897601f831160011461224e575090806004969798612239935f92610a8f5750508160011b915f199060031b1c19161790565b90555b51600384015551910155604051908152f35b9190601f19821698845f528a5f20915f5b8c8c821061229a575050836004999a9b10612282575b505050811b01905561223c565b01515f1960f88460031b161c19169055898080612275565b82840151855593860193928301920161225f565b8a92918c91601f198416865f52835f20935f905b8282106122f757505084116122df575b505050811b0190556121e9565b01515f1960f88460031b161c191690558b80806122d2565b8484015186558f979095019493840193908101906122c2565b015190508b80610a6e565b90601f19831691885f528b5f20925f5b8d828210612368575050908460019594939210612350575b505050811b018555612199565b01515f1960f88460031b161c191690558a8080612343565b600185968293968601518155019501930161232b565b346101fb5760203660031901126101fb576001600160a01b0361239f61262d565b165f52600d602052602060405f20541515604051908152f35b346101fb5760403660031901126101fb576123d161262d565b6024356123dd81612b0f565b33151580612486575b8061245d575b612445576001600160a01b039283169282918491167f8c5be1e5ebec7d5bd14f71427d1e84f3dd0314c0f7b2291e5b200ac8c7c3b9255f80a45f90815260046020526040902080546001600160a01b0319169091179055005b60405163a9fbf51f60e01b8152336004820152602490fd5b5060018060a01b0381165f52600560205260405f20335f5260205260ff60405f205416156123ec565b506001600160a01b0381163314156123e6565b346101fb5760203660031901126101fb576004356124b681612b0f565b505f526004602052602060018060a01b0360405f205416604051908152f35b346101fb575f3660031901126101fb576040515f805490826124f683612720565b91828252602093600190856001821691825f14610dca575050600114612523575061092d92500383612690565b5f808052859250907f290decd9548b62a8d60345a988386fc84ba6bc95484008f6362f93160ef3e5635b85831061256457505061092d935082010185610d62565b8054838901850152879450869390920191810161254d565b346101fb5760203660031901126101fb576004359063ffffffff60e01b82168092036101fb576020916380ac58cd60e01b81149081156125d6575b81156125c5575b5015158152f35b6301ffc9a760e01b149050836125be565b635b5e139f60e01b811491506125b7565b5f5b8381106125f85750505f910152565b81810151838201526020016125e9565b90602091612621815180928185528580860191016125e7565b601f01601f1916010190565b600435906001600160a01b03821682036101fb57565b602435906001600160a01b03821682036101fb57565b61016081019081106001600160401b0382111761094557604052565b602081019081106001600160401b0382111761094557604052565b90601f801991011681019081106001600160401b0382111761094557604052565b6001600160401b03811161094557601f01601f191660200190565b9291926126d8826126b1565b916126e66040519384612690565b8294818452818301116101fb578281602093845f960137010152565b9080601f830112156101fb5781602061271d933591016126cc565b90565b90600182811c9216801561274e575b602083101461273a57565b634e487b7160e01b5f52602260045260245ffd5b91607f169161272f565b80545f939261276682612720565b918282526020936001916001811690815f146127ca575060011461278c575b5050505050565b90939495505f92919252835f2092845f945b8386106127b657505050500101905f80808080612785565b80548587018301529401938590820161279e565b60ff19168685015250505090151560051b010191505f80808080612785565b60609060031901126101fb576001600160a01b039060043582811681036101fb579160243590811681036101fb579060443590565b81601f820112156101fb578035916020916001600160401b03808511610945578460051b906040519561285386840188612690565b86528480870192840101938085116101fb57858401925b85841061287b575050505050505090565b83358381116101fb578791612895848480948a0101612702565b81520193019261286a565b80548210156128b5575f5260205f2001905f90565b634e487b7160e01b5f52603260045260245ffd5b5f1981146128d75760010190565b634e487b7160e01b5f52601160045260245ffd5b601f82116128f857505050565b5f5260205f20906020601f840160051c83019310612930575b601f0160051c01905b818110612925575050565b5f815560010161291a565b9091508190612911565b6001600160a01b039182169290918315612abd57815f52602092600284528260409583875f2054169533151580612a2b575b50600290876129fa575b825f5260038152885f2060018154019055835f5252865f20816bffffffffffffffffffffffff60a01b825416179055857fddf252ad1be2c89b69c2b068fc378daa952ba7f163c4a11628f55a4df523b3ef5f80a416928383036129d95750505050565b6064945051926364283d7b60e01b8452600484015260248301526044820152fd5b5f84815260046020526040812080546001600160a01b03191690558881526003825289902080545f19019055612976565b9192509080612a7c575b15612a43579084915f61296c565b868587612a60576024915190637e27328960e01b82526004820152fd5b604491519063177e802f60e01b82523360048301526024820152fd5b503386148015612aa1575b80612a355750845f52600481523384885f20541614612a35565b50855f5260058152865f20335f52815260ff875f205416612a87565b604051633250574960e11b81525f6004820152602490fd5b6020612aee9181604051938285809451938492016125e7565b8101601481520301902090565b80518210156128b55760209160051b010190565b5f818152600260205260409020546001600160a01b0316908115612b31575090565b60249060405190637e27328960e01b82526004820152fd5b6006546001600160a01b03163303612b5d57565b60405163118cdaa760e01b8152336004820152602490fd5b9060138214612c6757612b89601354612720565b916001600160401b03831161094557612bac83612ba68354612720565b836128eb565b5f92601f8111600114612bea5780612bda9293945f91612bde575b508160011b915f199060031b1c19161790565b9055565b9050601301545f612bc7565b601f19811693825f5260209060205f20915f905b878210612c4157505082600194959610612c1c575b5050811b019055565b5f8051602061327383398151915201545f1960f88460031b161c191690555f80612c13565b82938192935f805160206132738339815191520154815560018091019401920190612bfe565b9050565b9293909193843b612c7d575050505050565b604051630a85bd0160e11b8082526001600160a01b039586166004830152938516602482015260448101919091526080606482015260209594909316939290859082908190612cd0906084830190612608565b03815f885af15f9181612d74575b50612d3d575050503d5f14612d35573d91612cf8836126b1565b92612d066040519485612690565b83523d5f8285013e5b82519283612d3057604051633250574960e11b815260048101849052602490fd5b019050fd5b606091612d0f565b9193506001600160e01b031990911603612d5c57505f80808080612785565b60249060405190633250574960e11b82526004820152fd5b9091508581813d8311612dad575b612d8c8183612690565b810103126101fb57516001600160e01b0319811681036101fb57905f612cde565b503d612d82565b90612dbe826126b1565b612dcb6040519182612690565b8281528092612ddc601f19916126b1565b0190602036910137565b805f917a184f03e93ff9f4daa797ed6e38ed64bf6a1f01000000000000000080821015612f1a575b506d04ee2d6d415b85acef810000000080831015612f0b575b50662386f26fc1000080831015612efc575b506305f5e10080831015612eed575b5061271080831015612ede575b506064821015612ece575b600a80921015612ec4575b600190816021612e7d60018701612db4565b95860101905b612e8f575b5050505090565b5f19019083906f181899199a1a9b1b9c1cb0b131b232b360811b8282061a835304918215612ebf57919082612e83565b612e88565b9160010191612e6b565b9190606460029104910191612e60565b6004919392049101915f612e55565b6008919392049101915f612e48565b6010919392049101915f612e39565b6020919392049101915f612e27565b60409350810491505f612e0e565b60018060a01b03165f526020600960205260405f209060405180928391602082549182815201915f5260205f20935f905b828210612f9f57505050612f6f92500382612690565b5f5b8151811015612f9957612f848183612afb565b5115612f9257600101612f71565b5050600190565b50505f90565b855484526001958601958795509381019390910190612f59565b60018060a01b03165f526020600960205260405f209060405180928391602082549182815201915f5260205f20935f905b82821061302d5750505061300092500382612690565b5f5b8151811015612f99576001806130188385612afb565b51146130275750600101613002565b91505090565b855484526001958601958795509381019390910190612fea565b60018060a01b03165f526020600960205260405f209060405180928391602082549182815201915f5260205f20935f905b8282106130b35750505061308e92500382612690565b5f5b8151811015612f995760026130a58284612afb565b5114612f9257600101613090565b855484526001958601958795509381019390910190613078565b60018060a01b03165f526020600960205260405f209060405180928391602082549182815201915f5260205f20935f905b8282106131395750505061311492500382612690565b5f5b8151811015612f9957600361312b8284612afb565b5114612f9257600101613116565b8554845260019586019587955093810193909101906130fe565b91909180511561323d57805192600291600285018095116128d7576003948590046001600160fe1b03811681036128d7576131939060029694961b612db4565b9260208401928291835184019760208901928351945f85525b8a81106131f0575050505060039394959650525106806001146131de576002146131d4575090565b603d905f19015390565b50603d90815f19820153600119015390565b836004919b989b019a8b51600190603f9082828260121c16870101518453828282600c1c16870101518385015382828260061c1687010151878501531684010151858201530196996131ac565b50905060405161324c81612675565b5f81529056feee48ad85a8081671a3e9ea552bb829b3619542eb24eccc4f98e740e44441ef5366de8ffda797e3de9c05e8fc57b3bf0ec28a930d40b0d285d93c06501cf6a090a2646970667358221220ef27b0de94fb1c96ff78fffd1cf9f36d5276fd0ce1616ba1a6a871fe3f6514d764736f6c63430008170033","linkReferences":{}},"methodIdentifiers":{"addAuthorizedScorer(address)":"349b39ca","approve(address,uint256)":"095ea7b3","authorizedScorers(address)":"f5ebef48","badges(uint256)":"98e36d8b","balanceOf(address)":"70a08231","certificateImages(uint256)":"1ada65be","createBadge(string,string,string,uint256,uint256)":"1415f4c0","getApproved(uint256)":"081812fc","getTierImage(string)":"28513558","getVerificationCount(address)":"f017c5a6","getWalletBadges(address)":"4a6f0ecf","getWalletCertificate(address)":"17ec4fc7","getWalletScore(address)":"1aad32b8","hasCertificate(address)":"0c02199b","hasCertificateMapping(address)":"1e891ad7","isApprovedForAll(address,address)":"e985e9c5","name()":"06fdde03","owner()":"8da5cb5b","ownerOf(uint256)":"6352211e","removeAuthorizedScorer(address)":"923edd04","renounceOwnership()":"715018a6","safeTransferFrom(address,address,uint256)":"42842e0e","safeTransferFrom(address,address,uint256,bytes)":"b88d4fde","scoreVerifications(address,address)":"daff3b9c","setApprovalForAll(address,bool)":"a22cb465","setBaseCertificateImage(string)":"31796d0f","setTierImage(string,string)":"31101720","setTierImages(string[],string[])":"bea76c34","supportsInterface(bytes4)":"01ffc9a7","symbol()":"95d89b41","tokenURI(uint256)":"c87b56dd","transferFrom(address,address,uint256)":"23b872dd","transferOwnership(address)":"f2fde38b","updateScore(address,uint256,uint256[7],string)":"7f9482a0","verifyScore(address)":"6d144c2f","walletBadges(address,uint256)":"c9bb1ff5","walletCertificates(address)":"92f5f675","walletScores(address)":"6c8c9301"},"id":38}